{"abi":[{"type":"constructor","inputs":[{"name":"_poolManager","type":"address","internalType":"contract IPoolManager"},{"name":"_kintoIDAddress","type":"address","internalType":"address"},{"name":"_loanTokenAddress","type":"address","internalType":"address"},{"name":"_collateralTokenAddress","type":"address","internalType":"address"},{"name":"_treasuryAddress","type":"address","internalType":"address"},{"name":"_safetyFundAddress","type":"address","internalType":"address"}],"stateMutability":"nonpayable"},{"type":"function","name":"LP_REWARD_PERCENTAGE","inputs":[],"outputs":[{"name":"","type":"uint256","internalType":"uint256"}],"stateMutability":"view"},{"type":"function","name":"SAFETY_FUND_PERCENTAGE","inputs":[],"outputs":[{"name":"","type":"uint256","internalType":"uint256"}],"stateMutability":"view"},{"type":"function","name":"TREASURY_PERCENTAGE","inputs":[],"outputs":[{"name":"","type":"uint256","internalType":"uint256"}],"stateMutability":"view"},{"type":"function","name":"afterAddLiquidity","inputs":[{"name":"sender","type":"address","internalType":"address"},{"name":"key","type":"tuple","internalType":"struct PoolKey","components":[{"name":"currency0","type":"address","internalType":"Currency"},{"name":"currency1","type":"address","internalType":"Currency"},{"name":"fee","type":"uint24","internalType":"uint24"},{"name":"tickSpacing","type":"int24","internalType":"int24"},{"name":"hooks","type":"address","internalType":"contract IHooks"}]},{"name":"params","type":"tuple","internalType":"struct IPoolManager.ModifyLiquidityParams","components":[{"name":"tickLower","type":"int24","internalType":"int24"},{"name":"tickUpper","type":"int24","internalType":"int24"},{"name":"liquidityDelta","type":"int256","internalType":"int256"},{"name":"salt","type":"bytes32","internalType":"bytes32"}]},{"name":"delta","type":"int256","internalType":"BalanceDelta"},{"name":"feesAccrued","type":"int256","internalType":"BalanceDelta"},{"name":"hookData","type":"bytes","internalType":"bytes"}],"outputs":[{"name":"","type":"bytes4","internalType":"bytes4"},{"name":"","type":"int256","internalType":"BalanceDelta"}],"stateMutability":"nonpayable"},{"type":"function","name":"afterDonate","inputs":[{"name":"sender","type":"address","internalType":"address"},{"name":"key","type":"tuple","internalType":"struct PoolKey","components":[{"name":"currency0","type":"address","internalType":"Currency"},{"name":"currency1","type":"address","internalType":"Currency"},{"name":"fee","type":"uint24","internalType":"uint24"},{"name":"tickSpacing","type":"int24","internalType":"int24"},{"name":"hooks","type":"address","internalType":"contract IHooks"}]},{"name":"amount0","type":"uint256","internalType":"uint256"},{"name":"amount1","type":"uint256","internalType":"uint256"},{"name":"hookData","type":"bytes","internalType":"bytes"}],"outputs":[{"name":"","type":"bytes4","internalType":"bytes4"}],"stateMutability":"nonpayable"},{"type":"function","name":"afterInitialize","inputs":[{"name":"sender","type":"address","internalType":"address"},{"name":"key","type":"tuple","internalType":"struct PoolKey","components":[{"name":"currency0","type":"address","internalType":"Currency"},{"name":"currency1","type":"address","internalType":"Currency"},{"name":"fee","type":"uint24","internalType":"uint24"},{"name":"tickSpacing","type":"int24","internalType":"int24"},{"name":"hooks","type":"address","internalType":"contract IHooks"}]},{"name":"sqrtPriceX96","type":"uint160","internalType":"uint160"},{"name":"tick","type":"int24","internalType":"int24"}],"outputs":[{"name":"","type":"bytes4","internalType":"bytes4"}],"stateMutability":"nonpayable"},{"type":"function","name":"afterRemoveLiquidity","inputs":[{"name":"sender","type":"address","internalType":"address"},{"name":"key","type":"tuple","internalType":"struct PoolKey","components":[{"name":"currency0","type":"address","internalType":"Currency"},{"name":"currency1","type":"address","internalType":"Currency"},{"name":"fee","type":"uint24","internalType":"uint24"},{"name":"tickSpacing","type":"int24","internalType":"int24"},{"name":"hooks","type":"address","internalType":"contract IHooks"}]},{"name":"params","type":"tuple","internalType":"struct IPoolManager.ModifyLiquidityParams","components":[{"name":"tickLower","type":"int24","internalType":"int24"},{"name":"tickUpper","type":"int24","internalType":"int24"},{"name":"liquidityDelta","type":"int256","internalType":"int256"},{"name":"salt","type":"bytes32","internalType":"bytes32"}]},{"name":"delta","type":"int256","internalType":"BalanceDelta"},{"name":"feesAccrued","type":"int256","internalType":"BalanceDelta"},{"name":"hookData","type":"bytes","internalType":"bytes"}],"outputs":[{"name":"","type":"bytes4","internalType":"bytes4"},{"name":"","type":"int256","internalType":"BalanceDelta"}],"stateMutability":"nonpayable"},{"type":"function","name":"afterSwap","inputs":[{"name":"sender","type":"address","internalType":"address"},{"name":"key","type":"tuple","internalType":"struct PoolKey","components":[{"name":"currency0","type":"address","internalType":"Currency"},{"name":"currency1","type":"address","internalType":"Currency"},{"name":"fee","type":"uint24","internalType":"uint24"},{"name":"tickSpacing","type":"int24","internalType":"int24"},{"name":"hooks","type":"address","internalType":"contract IHooks"}]},{"name":"params","type":"tuple","internalType":"struct IPoolManager.SwapParams","components":[{"name":"zeroForOne","type":"bool","internalType":"bool"},{"name":"amountSpecified","type":"int256","internalType":"int256"},{"name":"sqrtPriceLimitX96","type":"uint160","internalType":"uint160"}]},{"name":"delta","type":"int256","internalType":"BalanceDelta"},{"name":"hookData","type":"bytes","internalType":"bytes"}],"outputs":[{"name":"","type":"bytes4","internalType":"bytes4"},{"name":"","type":"int128","internalType":"int128"}],"stateMutability":"nonpayable"},{"type":"function","name":"beforeAddLiquidity","inputs":[{"name":"sender","type":"address","internalType":"address"},{"name":"key","type":"tuple","internalType":"struct PoolKey","components":[{"name":"currency0","type":"address","internalType":"Currency"},{"name":"currency1","type":"address","internalType":"Currency"},{"name":"fee","type":"uint24","internalType":"uint24"},{"name":"tickSpacing","type":"int24","internalType":"int24"},{"name":"hooks","type":"address","internalType":"contract IHooks"}]},{"name":"params","type":"tuple","internalType":"struct IPoolManager.ModifyLiquidityParams","components":[{"name":"tickLower","type":"int24","internalType":"int24"},{"name":"tickUpper","type":"int24","internalType":"int24"},{"name":"liquidityDelta","type":"int256","internalType":"int256"},{"name":"salt","type":"bytes32","internalType":"bytes32"}]},{"name":"hookData","type":"bytes","internalType":"bytes"}],"outputs":[{"name":"","type":"bytes4","internalType":"bytes4"}],"stateMutability":"nonpayable"},{"type":"function","name":"beforeDonate","inputs":[{"name":"sender","type":"address","internalType":"address"},{"name":"key","type":"tuple","internalType":"struct PoolKey","components":[{"name":"currency0","type":"address","internalType":"Currency"},{"name":"currency1","type":"address","internalType":"Currency"},{"name":"fee","type":"uint24","internalType":"uint24"},{"name":"tickSpacing","type":"int24","internalType":"int24"},{"name":"hooks","type":"address","internalType":"contract IHooks"}]},{"name":"amount0","type":"uint256","internalType":"uint256"},{"name":"amount1","type":"uint256","internalType":"uint256"},{"name":"hookData","type":"bytes","internalType":"bytes"}],"outputs":[{"name":"","type":"bytes4","internalType":"bytes4"}],"stateMutability":"nonpayable"},{"type":"function","name":"beforeInitialize","inputs":[{"name":"sender","type":"address","internalType":"address"},{"name":"key","type":"tuple","internalType":"struct PoolKey","components":[{"name":"currency0","type":"address","internalType":"Currency"},{"name":"currency1","type":"address","internalType":"Currency"},{"name":"fee","type":"uint24","internalType":"uint24"},{"name":"tickSpacing","type":"int24","internalType":"int24"},{"name":"hooks","type":"address","internalType":"contract IHooks"}]},{"name":"sqrtPriceX96","type":"uint160","internalType":"uint160"}],"outputs":[{"name":"","type":"bytes4","internalType":"bytes4"}],"stateMutability":"nonpayable"},{"type":"function","name":"beforeRemoveLiquidity","inputs":[{"name":"sender","type":"address","internalType":"address"},{"name":"key","type":"tuple","internalType":"struct PoolKey","components":[{"name":"currency0","type":"address","internalType":"Currency"},{"name":"currency1","type":"address","internalType":"Currency"},{"name":"fee","type":"uint24","internalType":"uint24"},{"name":"tickSpacing","type":"int24","internalType":"int24"},{"name":"hooks","type":"address","internalType":"contract IHooks"}]},{"name":"params","type":"tuple","internalType":"struct IPoolManager.ModifyLiquidityParams","components":[{"name":"tickLower","type":"int24","internalType":"int24"},{"name":"tickUpper","type":"int24","internalType":"int24"},{"name":"liquidityDelta","type":"int256","internalType":"int256"},{"name":"salt","type":"bytes32","internalType":"bytes32"}]},{"name":"hookData","type":"bytes","internalType":"bytes"}],"outputs":[{"name":"","type":"bytes4","internalType":"bytes4"}],"stateMutability":"nonpayable"},{"type":"function","name":"beforeSwap","inputs":[{"name":"sender","type":"address","internalType":"address"},{"name":"key","type":"tuple","internalType":"struct PoolKey","components":[{"name":"currency0","type":"address","internalType":"Currency"},{"name":"currency1","type":"address","internalType":"Currency"},{"name":"fee","type":"uint24","internalType":"uint24"},{"name":"tickSpacing","type":"int24","internalType":"int24"},{"name":"hooks","type":"address","internalType":"contract IHooks"}]},{"name":"params","type":"tuple","internalType":"struct IPoolManager.SwapParams","components":[{"name":"zeroForOne","type":"bool","internalType":"bool"},{"name":"amountSpecified","type":"int256","internalType":"int256"},{"name":"sqrtPriceLimitX96","type":"uint160","internalType":"uint160"}]},{"name":"hookData","type":"bytes","internalType":"bytes"}],"outputs":[{"name":"","type":"bytes4","internalType":"bytes4"},{"name":"","type":"int256","internalType":"BeforeSwapDelta"},{"name":"","type":"uint24","internalType":"uint24"}],"stateMutability":"nonpayable"},{"type":"function","name":"checkExpiredLoans","inputs":[{"name":"maxLoans","type":"uint256","internalType":"uint256"}],"outputs":[],"stateMutability":"nonpayable"},{"type":"function","name":"claimRewards","inputs":[],"outputs":[],"stateMutability":"nonpayable"},{"type":"function","name":"collateralToken","inputs":[],"outputs":[{"name":"","type":"address","internalType":"contract IERC20"}],"stateMutability":"view"},{"type":"function","name":"createLoan","inputs":[{"name":"amount","type":"uint256","internalType":"uint256"},{"name":"durationDays","type":"uint256","internalType":"uint256"},{"name":"collateralAmount","type":"uint256","internalType":"uint256"}],"outputs":[{"name":"","type":"uint256","internalType":"uint256"}],"stateMutability":"nonpayable"},{"type":"function","name":"getAllLpProviders","inputs":[],"outputs":[{"name":"","type":"address[]","internalType":"address[]"}],"stateMutability":"view"},{"type":"function","name":"getClaimableRewards","inputs":[{"name":"lp","type":"address","internalType":"address"}],"outputs":[{"name":"","type":"uint256","internalType":"uint256"}],"stateMutability":"view"},{"type":"function","name":"getCurrentBorrowRate","inputs":[{"name":"user","type":"address","internalType":"address"}],"outputs":[{"name":"","type":"uint256","internalType":"uint256"}],"stateMutability":"view"},{"type":"function","name":"getHookPermissions","inputs":[],"outputs":[{"name":"","type":"tuple","internalType":"struct Hooks.Permissions","components":[{"name":"beforeInitialize","type":"bool","internalType":"bool"},{"name":"afterInitialize","type":"bool","internalType":"bool"},{"name":"beforeAddLiquidity","type":"bool","internalType":"bool"},{"name":"afterAddLiquidity","type":"bool","internalType":"bool"},{"name":"beforeRemoveLiquidity","type":"bool","internalType":"bool"},{"name":"afterRemoveLiquidity","type":"bool","internalType":"bool"},{"name":"beforeSwap","type":"bool","internalType":"bool"},{"name":"afterSwap","type":"bool","internalType":"bool"},{"name":"beforeDonate","type":"bool","internalType":"bool"},{"name":"afterDonate","type":"bool","internalType":"bool"},{"name":"beforeSwapReturnDelta","type":"bool","internalType":"bool"},{"name":"afterSwapReturnDelta","type":"bool","internalType":"bool"},{"name":"afterAddLiquidityReturnDelta","type":"bool","internalType":"bool"},{"name":"afterRemoveLiquidityReturnDelta","type":"bool","internalType":"bool"}]}],"stateMutability":"pure"},{"type":"function","name":"getLpProviderCount","inputs":[],"outputs":[{"name":"","type":"uint256","internalType":"uint256"}],"stateMutability":"view"},{"type":"function","name":"getUserActiveLoans","inputs":[{"name":"user","type":"address","internalType":"address"}],"outputs":[{"name":"","type":"uint256[]","internalType":"uint256[]"}],"stateMutability":"view"},{"type":"function","name":"isLpProvider","inputs":[{"name":"","type":"address","internalType":"address"}],"outputs":[{"name":"","type":"bool","internalType":"bool"}],"stateMutability":"view"},{"type":"function","name":"kintoID","inputs":[],"outputs":[{"name":"","type":"address","internalType":"contract IKintoID"}],"stateMutability":"view"},{"type":"function","name":"liquidateLoan","inputs":[{"name":"loanId","type":"uint256","internalType":"uint256"}],"outputs":[],"stateMutability":"nonpayable"},{"type":"function","name":"loanToken","inputs":[],"outputs":[{"name":"","type":"address","internalType":"contract IERC20"}],"stateMutability":"view"},{"type":"function","name":"loans","inputs":[{"name":"","type":"uint256","internalType":"uint256"}],"outputs":[{"name":"id","type":"uint256","internalType":"uint256"},{"name":"borrower","type":"address","internalType":"address"},{"name":"principal","type":"uint256","internalType":"uint256"},{"name":"interestRate","type":"uint256","internalType":"uint256"},{"name":"collateralAmount","type":"uint256","internalType":"uint256"},{"name":"dueDate","type":"uint256","internalType":"uint256"},{"name":"active","type":"bool","internalType":"bool"}],"stateMutability":"view"},{"type":"function","name":"lpPositions","inputs":[{"name":"","type":"address","internalType":"address"}],"outputs":[{"name":"","type":"uint256","internalType":"uint256"}],"stateMutability":"view"},{"type":"function","name":"lpProviders","inputs":[{"name":"","type":"uint256","internalType":"uint256"}],"outputs":[{"name":"","type":"address","internalType":"address"}],"stateMutability":"view"},{"type":"function","name":"owner","inputs":[],"outputs":[{"name":"","type":"address","internalType":"address"}],"stateMutability":"view"},{"type":"function","name":"poolManager","inputs":[],"outputs":[{"name":"","type":"address","internalType":"contract IPoolManager"}],"stateMutability":"view"},{"type":"function","name":"renounceOwnership","inputs":[],"outputs":[],"stateMutability":"nonpayable"},{"type":"function","name":"repayLoan","inputs":[{"name":"loanId","type":"uint256","internalType":"uint256"},{"name":"amount","type":"uint256","internalType":"uint256"}],"outputs":[],"stateMutability":"nonpayable"},{"type":"function","name":"rewardPoints","inputs":[{"name":"","type":"address","internalType":"address"}],"outputs":[{"name":"","type":"uint256","internalType":"uint256"}],"stateMutability":"view"},{"type":"function","name":"safetyFundAddress","inputs":[],"outputs":[{"name":"","type":"address","internalType":"address"}],"stateMutability":"view"},{"type":"function","name":"setKintoID","inputs":[{"name":"newKintoID","type":"address","internalType":"address"}],"outputs":[],"stateMutability":"nonpayable"},{"type":"function","name":"setSafetyFundAddress","inputs":[{"name":"newSafetyFund","type":"address","internalType":"address"}],"outputs":[],"stateMutability":"nonpayable"},{"type":"function","name":"setTreasuryAddress","inputs":[{"name":"newTreasury","type":"address","internalType":"address"}],"outputs":[],"stateMutability":"nonpayable"},{"type":"function","name":"totalLiquidity","inputs":[],"outputs":[{"name":"","type":"uint256","internalType":"uint256"}],"stateMutability":"view"},{"type":"function","name":"transferOwnership","inputs":[{"name":"newOwner","type":"address","internalType":"address"}],"outputs":[],"stateMutability":"nonpayable"},{"type":"function","name":"treasuryAddress","inputs":[],"outputs":[{"name":"","type":"address","internalType":"address"}],"stateMutability":"view"},{"type":"function","name":"userCreditMetrics","inputs":[{"name":"","type":"address","internalType":"address"}],"outputs":[{"name":"totalBorrowed","type":"uint256","internalType":"uint256"},{"name":"totalRepaid","type":"uint256","internalType":"uint256"},{"name":"missedPayments","type":"uint256","internalType":"uint256"}],"stateMutability":"view"},{"type":"function","name":"userLoans","inputs":[{"name":"","type":"address","internalType":"address"},{"name":"","type":"uint256","internalType":"uint256"}],"outputs":[{"name":"","type":"uint256","internalType":"uint256"}],"stateMutability":"view"},{"type":"event","name":"LiquidityAdded","inputs":[{"name":"provider","type":"address","indexed":true,"internalType":"address"},{"name":"amount","type":"uint256","indexed":false,"internalType":"uint256"}],"anonymous":false},{"type":"event","name":"LiquidityRemoved","inputs":[{"name":"provider","type":"address","indexed":true,"internalType":"address"},{"name":"amount","type":"uint256","indexed":false,"internalType":"uint256"}],"anonymous":false},{"type":"event","name":"LoanCreated","inputs":[{"name":"loanId","type":"uint256","indexed":true,"internalType":"uint256"},{"name":"borrower","type":"address","indexed":true,"internalType":"address"},{"name":"amount","type":"uint256","indexed":false,"internalType":"uint256"},{"name":"collateral","type":"uint256","indexed":false,"internalType":"uint256"},{"name":"dueDate","type":"uint256","indexed":false,"internalType":"uint256"}],"anonymous":false},{"type":"event","name":"LoanLiquidated","inputs":[{"name":"loanId","type":"uint256","indexed":true,"internalType":"uint256"},{"name":"borrower","type":"address","indexed":true,"internalType":"address"},{"name":"collateralLiquidated","type":"uint256","indexed":false,"internalType":"uint256"}],"anonymous":false},{"type":"event","name":"LoanRepaid","inputs":[{"name":"loanId","type":"uint256","indexed":true,"internalType":"uint256"},{"name":"borrower","type":"address","indexed":true,"internalType":"address"},{"name":"amount","type":"uint256","indexed":false,"internalType":"uint256"},{"name":"isFull","type":"bool","indexed":false,"internalType":"bool"}],"anonymous":false},{"type":"event","name":"OwnershipTransferred","inputs":[{"name":"previousOwner","type":"address","indexed":true,"internalType":"address"},{"name":"newOwner","type":"address","indexed":true,"internalType":"address"}],"anonymous":false},{"type":"event","name":"RewardClaimed","inputs":[{"name":"provider","type":"address","indexed":true,"internalType":"address"},{"name":"amount","type":"uint256","indexed":false,"internalType":"uint256"}],"anonymous":false},{"type":"event","name":"RewardDistributed","inputs":[{"name":"lpAmount","type":"uint256","indexed":false,"internalType":"uint256"},{"name":"safetyAmount","type":"uint256","indexed":false,"internalType":"uint256"},{"name":"treasuryAmount","type":"uint256","indexed":false,"internalType":"uint256"}],"anonymous":false},{"type":"event","name":"RewardPointsAdded","inputs":[{"name":"provider","type":"address","indexed":true,"internalType":"address"},{"name":"points","type":"uint256","indexed":false,"internalType":"uint256"}],"anonymous":false},{"type":"error","name":"HookNotImplemented","inputs":[]},{"type":"error","name":"NotPoolManager","inputs":[]},{"type":"error","name":"OwnableInvalidOwner","inputs":[{"name":"owner","type":"address","internalType":"address"}]},{"type":"error","name":"OwnableUnauthorizedAccount","inputs":[{"name":"account","type":"address","internalType":"address"}]},{"type":"error","name":"ReentrancyGuardReentrantCall","inputs":[]},{"type":"error","name":"SafeERC20FailedOperation","inputs":[{"name":"token","type":"address","internalType":"address"}]}],"bytecode":{"object":"0x60a060405234801561000f575f80fd5b50604051612f7d380380612f7d83398101604081905261002e916103a0565b6001600160a01b0386166080523386610046306100e5565b506001600160a01b03811661007457604051631e4fbdf760e01b81525f600482015260240160405180910390fd5b61007d816101d8565b5060018055600280546001600160a01b03199081166001600160a01b0397881617909155600380548216958716959095179094556004805485169386169390931790925560058054841691851691909117905560068054909216921691909117905550610423565b6101d5816101d0604080516101c0810182525f80825260208201819052918101829052606081018290526080810182905260a0810182905260c0810182905260e08101829052610100810182905261012081018290526101408101829052610160810182905261018081018290526101a081019190915250604080516101c0810182525f808252602082018190529181018290526001606082018190526080820183905260a0820181905260c0820183905260e0820183905261010082018390526101208201526101408101829052610160810182905261018081018290526101a081019190915290565b610227565b50565b5f80546001600160a01b038381166001600160a01b0319831681178455604051919092169283917f8be0079c531659141344cd1fd0a4f28419497f9722a3daafe3b4186f6b6457e09190a35050565b805115156120008316151514158061024b5750602081015115156110008316151514155b806102625750604081015115156108008316151514155b806102795750606081015115156104008316151514155b806102905750608081015115156102008316151514155b806102a7575060a081015115156101008316151514155b806102bd575060c0810151151560808316151514155b806102d3575060e0810151151560408316151514155b806102ea5750610100810151151560208316151514155b806103015750610120810151151560108316151514155b806103185750610140810151151560088316151514155b8061032f5750610160810151151560048316151514155b806103465750610180810151151560028316151514155b8061035d57506101a0810151151560018316151514155b1561037357610373630732d7b560e51b83610377565b5050565b815f526001600160a01b03811660045260245ffd5b6001600160a01b03811681146101d5575f80fd5b5f805f805f8060c087890312156103b5575f80fd5b86516103c08161038c565b60208801519096506103d18161038c565b60408801519095506103e28161038c565b60608801519094506103f38161038c565b60808801519093506104048161038c565b60a08801519092506104158161038c565b809150509295509295509295565b608051612b0361047a5f395f81816106fe0152818161087801528181610a4501528181610ad801528181610b41015281816110b30152818161110d01528181611174015281816114fe01526115830152612b035ff3fe608060405234801561000f575f80fd5b50600436106102e3575f3560e01c806399a6cddd11610187578063d8bad5bd116100dd578063e1ec3c6811610093578063f2fde38b1161006e578063f2fde38b146107d3578063f844a1b4146107e6578063ff51f542146107f9575f80fd5b8063e1ec3c6814610759578063efc140de146107ab578063f1745d3d146107c0575f80fd5b8063dc98354e116100c3578063dc98354e14610720578063de5c02c214610733578063e1b4af6914610746575f80fd5b8063d8bad5bd146106e6578063dc4c90d3146106f9575f80fd5b8063b47b2fb11161013d578063c4e833ce11610118578063c4e833ce146105cc578063c5f956af146106c0578063ccdd9f5d146106d3575f80fd5b8063b47b2fb114610563578063b6a8b0fa14610599578063b8e9c533146105ac575f80fd5b8063b180f09a1161016d578063b180f09a14610535578063b2016bd414610548578063b26565c51461055b575f80fd5b806399a6cddd1461050f5780639f063efc14610522575f80fd5b80636605bfda1161023c57806378370d0a116101f25780638da5cb5b116101cd5780638da5cb5b146104e4578063904b513b146104f457806391660a5a14610507575f80fd5b806378370d0a146104aa5780637bd95a85146104b25780638a700b53146104d1575f80fd5b80636fe7e6eb116102225780636fe7e6eb1461045d578063715018a61461047057806374bb786214610478575f80fd5b80636605bfda146104175780636c2bbe7e1461042a575f80fd5b8063259982e51161029c578063372500ab11610277578063372500ab146103b257806354508972146103ba578063575e24b4146103d9575f80fd5b8063259982e51461034b578063308e401e14610377578063357442c01461039f575f80fd5b806315770f92116102cc57806315770f921461032c578063173b31d81461034357806321d0ee701461034b575f80fd5b806306d37817146102e757806311a90dc314610317575b5f80fd5b6003546102fa906001600160a01b031681565b6040516001600160a01b0390911681526020015b60405180910390f35b61032a61032536600461241f565b610842565b005b610335600a5481565b60405190815260200161030e565b610335601481565b61035e6103593660046124a5565b61086c565b6040516001600160e01b0319909116815260200161030e565b61033561038536600461241f565b6001600160a01b03165f908152600b602052604090205490565b61032a6103ad36600461251c565b6108cd565b61032a610956565b6103356103c836600461241f565b60096020525f908152604090205481565b6103ec6103e7366004612543565b610a37565b604080516001600160e01b03199094168452602084019290925262ffffff169082015260600161030e565b61032a61042536600461241f565b610aa1565b61043d61043836600461259d565b610acb565b604080516001600160e01b0319909316835260208301919091520161030e565b61035e61046b366004612628565b610b35565b61032a610b94565b61049a61048636600461241f565b60086020525f908152604090205460ff1681565b604051901515815260200161030e565b600754610335565b6103356104c036600461241f565b600b6020525f908152604090205481565b61032a6104df366004612687565b610ba5565b5f546001600160a01b03166102fa565b6103356105023660046126a7565b610cf2565b610335600a81565b6002546102fa906001600160a01b031681565b61043d61053036600461259d565b6110a6565b6006546102fa906001600160a01b031681565b6004546102fa906001600160a01b031681565b610335604681565b6105766105713660046126d0565b611100565b604080516001600160e01b03199093168352600f9190910b60208301520161030e565b61035e6105a7366004612751565b611168565b6105bf6105ba36600461241f565b6111cb565b60405161030e91906127ab565b6106b3604080516101c0810182525f80825260208201819052918101829052606081018290526080810182905260a0810182905260c0810182905260e08101829052610100810182905261012081018290526101408101829052610160810182905261018081018290526101a081019190915250604080516101c0810182525f808252602082018190529181018290526001606082018190526080820183905260a0820181905260c0820183905260e0820183905261010082018390526101208201526101408101829052610160810182905261018081018290526101a081019190915290565b60405161030e91906127e2565b6005546102fa906001600160a01b031681565b61032a6106e136600461251c565b611389565b6103356106f4366004612903565b6114c7565b6102fa7f000000000000000000000000000000000000000000000000000000000000000081565b61035e61072e36600461292d565b6114f2565b6102fa61074136600461251c565b61154f565b61035e610754366004612751565b611577565b61076c61076736600461251c565b6115cf565b604080519788526001600160a01b039096166020880152948601939093526060850191909152608084015260a0830152151560c082015260e00161030e565b6107b3611629565b60405161030e9190612974565b6103356107ce36600461241f565b611689565b61032a6107e136600461241f565b611699565b61032a6107f436600461241f565b6116ef565b61082761080736600461241f565b600e6020525f908152604090208054600182015460029092015490919083565b6040805193845260208401929092529082015260600161030e565b61084a611719565b600280546001600160a01b0319166001600160a01b0392909216919091179055565b5f336001600160a01b037f000000000000000000000000000000000000000000000000000000000000000016146108b65760405163570c108560e11b815260040160405180910390fd5b6108c3868686868661175e565b9695505050505050565b600c545f9082116108de57816108e2565b600c545b90505f5b81811015610951575f600c8281548110610902576109026129b4565b5f9182526020909120600790910201600681015490915060ff168015610938575060058101546109359062093a806129dc565b42115b1561094857805461094890611778565b506001016108e6565b505050565b61095e61184d565b335f818152600b6020526040902054806109bf5760405162461bcd60e51b815260206004820152601360248201527f4e6f207265776172647320746f20636c61696d0000000000000000000000000060448201526064015b60405180910390fd5b6001600160a01b038083165f908152600b60205260408120556003546109e791168383611890565b816001600160a01b03167f106f923f993c2149d49b4255ff723acafa1f2d94393f561d3eda32ae348f724182604051610a2291815260200190565b60405180910390a25050610a3560018055565b565b5f8080336001600160a01b037f00000000000000000000000000000000000000000000000000000000000000001614610a835760405163570c108560e11b815260040160405180910390fd5b610a908888888888611904565b925092509250955095509592505050565b610aa9611719565b600580546001600160a01b0319166001600160a01b0392909216919091179055565b5f80336001600160a01b037f00000000000000000000000000000000000000000000000000000000000000001614610b165760405163570c108560e11b815260040160405180910390fd5b610b2589898989898989611920565b9150915097509795505050505050565b5f336001600160a01b037f00000000000000000000000000000000000000000000000000000000000000001614610b7f5760405163570c108560e11b815260040160405180910390fd5b610b8b8585858561175e565b95945050505050565b610b9c611719565b610a355f611a83565b610bad61184d565b600c548210610bf05760405162461bcd60e51b815260206004820152600f60248201526e125b9d985b1a59081b1bd85b881251608a1b60448201526064016109b6565b5f600c8381548110610c0457610c046129b4565b5f9182526020909120600790910201600681015490915060ff16610c5c5760405162461bcd60e51b815260206004820152600f60248201526e4c6f616e206e6f742061637469766560881b60448201526064016109b6565b60018101546001600160a01b03163314610cb85760405162461bcd60e51b815260206004820152601160248201527f4e6f74206c6f616e20626f72726f77657200000000000000000000000000000060448201526064016109b6565b600354610cd0906001600160a01b0316333085611ad2565b610cdb338484611b11565b610ce482611d73565b50610cee60018055565b5050565b5f610cfb61184d565b6002546040517fb9209e330000000000000000000000000000000000000000000000000000000081523360048201526001600160a01b039091169063b9209e3390602401602060405180830381865afa158015610d5a573d5f803e3d5ffd5b505050506040513d601f19601f82011682018060405250810190610d7e91906129ef565b610dca5760405162461bcd60e51b815260206004820152601060248201527f4e6f74204b59432076657269666965640000000000000000000000000000000060448201526064016109b6565b5f610dd433611e76565b90505f6064610de4876050612a0e565b610dee9190612a25565b905080841015610e405760405162461bcd60e51b815260206004820152601760248201527f496e73756666696369656e7420636f6c6c61746572616c00000000000000000060448201526064016109b6565b600454610e58906001600160a01b0316333087611ad2565b600c545f610e698762015180612a0e565b610e7390426129dc565b6040805160e0810182528481523360208083018281528385018e8152606085018b8152608086018e815260a08701898152600160c08901818152600c805480840182555f9182529a517fdf6966c971051c3d54ec59162606531493a51404a002842f56009d7e5cf4a8c76007909c029b8c015596517fdf6966c971051c3d54ec59162606531493a51404a002842f56009d7e5cf4a8c88b0180546001600160a01b0319166001600160a01b0390921691909117905594517fdf6966c971051c3d54ec59162606531493a51404a002842f56009d7e5cf4a8c98a015592517fdf6966c971051c3d54ec59162606531493a51404a002842f56009d7e5cf4a8ca89015590517fdf6966c971051c3d54ec59162606531493a51404a002842f56009d7e5cf4a8cb880155517fdf6966c971051c3d54ec59162606531493a51404a002842f56009d7e5cf4a8cc87015590517fdf6966c971051c3d54ec59162606531493a51404a002842f56009d7e5cf4a8cd909501805460ff191695151595909517909455828152600d8252848120805494850181558152818120909301879055908252600e905290812080549293508a929091906110309084906129dc565b909155505060035461104c906001600160a01b0316338a611890565b6040805189815260208101889052908101829052339083907fb2cca1719ad611d325136b9c9a4357f412d33694d93c60d4c1b6e922d524cf599060600160405180910390a3509250505061109f60018055565b9392505050565b5f80336001600160a01b037f000000000000000000000000000000000000000000000000000000000000000016146110f15760405163570c108560e11b815260040160405180910390fd5b610b2589898989898989611f62565b5f80336001600160a01b037f0000000000000000000000000000000000000000000000000000000000000000161461114b5760405163570c108560e11b815260040160405180910390fd5b6111598888888888886120c7565b91509150965096945050505050565b5f336001600160a01b037f000000000000000000000000000000000000000000000000000000000000000016146111b25760405163570c108560e11b815260040160405180910390fd5b6111c087878787878761175e565b979650505050505050565b6001600160a01b0381165f908152600d6020908152604080832080548251818502810185019093528083526060949383018282801561122757602002820191905f5260205f20905b815481526020019060010190808311611213575b505050505090505f805b825181101561129757600c83828151811061124e5761124e6129b4565b602002602001015181548110611266576112666129b4565b5f91825260209091206006600790920201015460ff161561128f578161128b81612a44565b9250505b600101611231565b505f8167ffffffffffffffff8111156112b2576112b2612a5c565b6040519080825280602002602001820160405280156112db578160200160208202803683370190505b5090505f805b845181101561137e57600c8582815181106112fe576112fe6129b4565b602002602001015181548110611316576113166129b4565b5f91825260209091206006600790920201015460ff161561137657848181518110611343576113436129b4565b602002602001015183838151811061135d5761135d6129b4565b60209081029190910101528161137281612a44565b9250505b6001016112e1565b509095945050505050565b600c5481106113cc5760405162461bcd60e51b815260206004820152600f60248201526e125b9d985b1a59081b1bd85b881251608a1b60448201526064016109b6565b5f600c82815481106113e0576113e06129b4565b5f9182526020909120600790910201600681015490915060ff166114385760405162461bcd60e51b815260206004820152600f60248201526e4c6f616e206e6f742061637469766560881b60448201526064016109b6565b600581015461144a9062093a806129dc565b42116114be5760405162461bcd60e51b815260206004820152602160248201527f4c6f616e206e6f7420656c696769626c6520666f72206c69717569646174696f60448201527f6e0000000000000000000000000000000000000000000000000000000000000060648201526084016109b6565b610cee82611778565b600d602052815f5260405f2081815481106114e0575f80fd5b905f5260205f20015f91509150505481565b5f336001600160a01b037f0000000000000000000000000000000000000000000000000000000000000000161461153c5760405163570c108560e11b815260040160405180910390fd5b61154784848461175e565b949350505050565b6007818154811061155e575f80fd5b5f918252602090912001546001600160a01b0316905081565b5f336001600160a01b037f000000000000000000000000000000000000000000000000000000000000000016146115c15760405163570c108560e11b815260040160405180910390fd5b6111c08787878787876120e2565b600c81815481106115de575f80fd5b5f91825260209091206007909102018054600182015460028301546003840154600485015460058601546006909601549496506001600160a01b039093169491939092919060ff1687565b6060600780548060200260200160405190810160405280929190818152602001828054801561167f57602002820191905f5260205f20905b81546001600160a01b03168152600190910190602001808311611661575b5050505050905090565b5f61169382611e76565b92915050565b6116a1611719565b6001600160a01b0381166116e3576040517f1e4fbdf70000000000000000000000000000000000000000000000000000000081525f60048201526024016109b6565b6116ec81611a83565b50565b6116f7611719565b600680546001600160a01b0319166001600160a01b0392909216919091179055565b5f546001600160a01b03163314610a35576040517f118cdaa70000000000000000000000000000000000000000000000000000000081523360048201526024016109b6565b5f604051630a85dc2960e01b815260040160405180910390fd5b5f600c828154811061178c5761178c6129b4565b5f918252602080832060016007909302018281015460068201805460ff191690556001600160a01b0316808552600e9092526040842060020180549195509193906117d89084906129dc565b90915550506006546004808401549054611800926001600160a01b0391821692911690611890565b806001600160a01b0316837f0256bdf47e9aff5784070d6cab332d79f81fc6b8c8ed875565982a423a389e3a846004015460405161184091815260200190565b60405180910390a3505050565b600260015403611889576040517f3ee5aeb500000000000000000000000000000000000000000000000000000000815260040160405180910390fd5b6002600155565b6040516001600160a01b0383811660248301526044820183905261095191859182169063a9059cbb906064015b604051602081830303815290604052915060e01b6020820180517bffffffffffffffffffffffffffffffffffffffffffffffffffffffff8381831617835250505050612148565b5f805f604051630a85dc2960e01b815260040160405180910390fd5b5f805f80886040013512611938578760400135611945565b6119456040890135612a70565b6001600160a01b038b165f9081526009602052604090205490915081111561198157506001600160a01b0389165f908152600960205260409020545b6001600160a01b038a165f90815260096020526040812080548392906119a8908490612aa6565b9250508190555080600a5f8282546119c09190612aa6565b90915550506001600160a01b038a165f90815260096020526040902054158015611a0157506001600160a01b038a165f9081526008602052604090205460ff165b15611a0f57611a0f8a6121cd565b896001600160a01b03167fc2c3f06e49b9f15e7b4af9055e183b0d73362e033ad82a07dec9bf984017171982604051611a4a91815260200190565b60405180910390a2507f6c2bbe7e00000000000000000000000000000000000000000000000000000000995f9950975050505050505050565b5f80546001600160a01b038381166001600160a01b0319831681178455604051919092169283917f8be0079c531659141344cd1fd0a4f28419497f9722a3daafe3b4186f6b6457e09190a35050565b6040516001600160a01b038481166024830152838116604483015260648201839052611b0b9186918216906323b872dd906084016118bd565b50505050565b600c548210611b545760405162461bcd60e51b815260206004820152600f60248201526e125b9d985b1a59081b1bd85b881251608a1b60448201526064016109b6565b5f600c8381548110611b6857611b686129b4565b5f9182526020909120600790910201600681015490915060ff16611bc05760405162461bcd60e51b815260206004820152600f60248201526e4c6f616e206e6f742061637469766560881b60448201526064016109b6565b60018101546001600160a01b03858116911614611c1f5760405162461bcd60e51b815260206004820152601160248201527f4e6f74206c6f616e20626f72726f77657200000000000000000000000000000060448201526064016109b6565b5f64496cebb800826005015442611c369190612aa6565b611c439062278d006129dc565b83600301548460020154611c579190612a0e565b611c619190612a0e565b611c6b9190612a25565b90505f818360020154611c7e91906129dc565b6001600160a01b0387165f908152600e6020526040812060010180549293508387101592879290611cb09084906129dc565b90915550508015611d235760068401805460ff191690556004808501549054611ce6916001600160a01b03909116908990611890565b8360050154421115611d23576001600160a01b0387165f908152600e60205260408120600201805460019290611d1d9084906129dc565b90915550505b6040805186815282151560208201526001600160a01b0389169188917f2010de6ec11f83338b76cf98d4924c7ea74a036c590a8180872a82d2871c47ca910160405180910390a350505050505050565b5f6064611d81604684612a0e565b611d8b9190612a25565b90505f6064611d9b600a85612a0e565b611da59190612a25565b90505f6064611db5601486612a0e565b611dbf9190612a25565b600654600354919250611ddf916001600160a01b03908116911684611890565b600554600354611dfc916001600160a01b03918216911683611890565b600a5415611e1257611e0d836122e2565b611e2f565b600654600354611e2f916001600160a01b03918216911685611890565b60408051848152602081018490529081018290527fda04004d58812f3e164f58e498158acca1b0054d975fce0e3bafdf56f2e254ba9060600160405180910390a150505050565b6001600160a01b0381165f908152600e602090815260408083208151606081018352815480825260018301549482019490945260029091015491810191909152906103e89015801590611ecc57505f8260200151115b15611f2b578151602083015110611f2b57604082015161015e9015611f2157600a8360400151600a611efe9190612aa6565b611f089083612a0e565b611f129190612a25565b905061015e811115611f2157505f5b610b8b8183612aa6565b60408201511561109f575f82604001516064611f479190612a0e565b90506101f4811115611f5857506101f45b610b8b81836129dc565b5f805f80886040013513611f8257611f7d6040890135612a70565b611f88565b87604001355b6001600160a01b038b165f90815260096020526040812080549293508392909190611fb49084906129dc565b9250508190555080600a5f828254611fcc91906129dc565b90915550506001600160a01b038a165f9081526008602052604090205460ff16612053576007805460018082019092557fa66cc928b5edb82af9bd49922954155ab7b0942694bea4ce44661d9a8736c6880180546001600160a01b0319166001600160a01b038d169081179091555f908152600860205260409020805460ff191690911790555b896001600160a01b03167fc17cea59c2955cb181b03393209566960365771dbba9dc3d510180e7cb3120888260405161208e91815260200190565b60405180910390a2507f9f063efc00000000000000000000000000000000000000000000000000000000995f9950975050505050505050565b5f80604051630a85dc2960e01b815260040160405180910390fd5b5f806120ee85876129dc565b90508215612112575f6121038486018661251c565b9050612110898284611b11565b505b61211b81611d73565b507fe1b4af6900000000000000000000000000000000000000000000000000000000979650505050505050565b5f8060205f8451602086015f885af180612167576040513d5f823e3d81fd5b50505f513d9150811561217e57806001141561218b565b6001600160a01b0384163b155b15611b0b576040517f5274afe70000000000000000000000000000000000000000000000000000000081526001600160a01b03851660048201526024016109b6565b5f5b600754811015610cee57816001600160a01b0316600782815481106121f6576121f66129b4565b5f918252602090912001546001600160a01b0316036122da576007805461221f90600190612aa6565b8154811061222f5761222f6129b4565b5f91825260209091200154600780546001600160a01b03909216918390811061225a5761225a6129b4565b905f5260205f20015f6101000a8154816001600160a01b0302191690836001600160a01b03160217905550600780548061229657612296612ab9565b5f828152602080822083015f1990810180546001600160a01b03191690559092019092556001600160a01b03841682526008905260409020805460ff191690555050565b6001016121cf565b805f5b6007548110156123e7575f60078281548110612303576123036129b4565b5f9182526020808320909101546001600160a01b03168083526009909152604090912054909150156123de57600a546001600160a01b0382165f908152600960205260408120549091906123579087612a0e565b6123619190612a25565b6001600160a01b0383165f908152600b602052604081208054929350839290919061238d9084906129dc565b90915550506040518181526001600160a01b038316907f49afa8d04bf9276fe53c820d15a1790d2d486f48d6aac36dcc322dc576b232349060200160405180910390a26123da8185612aa6565b9350505b506001016122e5565b508015610cee57600654600354610cee916001600160a01b03918216911683611890565b6001600160a01b03811681146116ec575f80fd5b5f6020828403121561242f575f80fd5b813561109f8161240b565b5f60a0828403121561244a575f80fd5b50919050565b5f6080828403121561244a575f80fd5b5f8083601f840112612470575f80fd5b50813567ffffffffffffffff811115612487575f80fd5b60208301915083602082850101111561249e575f80fd5b9250929050565b5f805f805f61016086880312156124ba575f80fd5b85356124c58161240b565b94506124d4876020880161243a565b93506124e38760c08801612450565b925061014086013567ffffffffffffffff8111156124ff575f80fd5b61250b88828901612460565b969995985093965092949392505050565b5f6020828403121561252c575f80fd5b5035919050565b5f6060828403121561244a575f80fd5b5f805f805f6101408688031215612558575f80fd5b85356125638161240b565b9450612572876020880161243a565b93506125818760c08801612533565b925061012086013567ffffffffffffffff8111156124ff575f80fd5b5f805f805f805f6101a0888a0312156125b4575f80fd5b87356125bf8161240b565b96506125ce8960208a0161243a565b95506125dd8960c08a01612450565b94506101408801359350610160880135925061018088013567ffffffffffffffff811115612609575f80fd5b6126158a828b01612460565b989b979a50959850939692959293505050565b5f805f80610100858703121561263c575f80fd5b84356126478161240b565b9350612656866020870161243a565b925060c08501356126668161240b565b915060e0850135600281900b811461267c575f80fd5b939692955090935050565b5f8060408385031215612698575f80fd5b50508035926020909101359150565b5f805f606084860312156126b9575f80fd5b505081359360208301359350604090920135919050565b5f805f805f8061016087890312156126e6575f80fd5b86356126f18161240b565b9550612700886020890161243a565b945061270f8860c08901612533565b9350610120870135925061014087013567ffffffffffffffff811115612733575f80fd5b61273f89828a01612460565b979a9699509497509295939492505050565b5f805f805f806101208789031215612767575f80fd5b86356127728161240b565b9550612781886020890161243a565b945060c0870135935060e0870135925061010087013567ffffffffffffffff811115612733575f80fd5b602080825282518282018190525f918401906040840190835b8181101561137e5783518352602093840193909201916001016127c4565b8151151581526101c081016020830151612800602084018215159052565b506040830151612814604084018215159052565b506060830151612828606084018215159052565b50608083015161283c608084018215159052565b5060a083015161285060a084018215159052565b5060c083015161286460c084018215159052565b5060e083015161287860e084018215159052565b5061010083015161288e61010084018215159052565b506101208301516128a461012084018215159052565b506101408301516128ba61014084018215159052565b506101608301516128d061016084018215159052565b506101808301516128e661018084018215159052565b506101a08301516128fc6101a084018215159052565b5092915050565b5f8060408385031215612914575f80fd5b823561291f8161240b565b946020939093013593505050565b5f805f60e0848603121561293f575f80fd5b833561294a8161240b565b9250612959856020860161243a565b915060c08401356129698161240b565b809150509250925092565b602080825282518282018190525f918401906040840190835b8181101561137e5783516001600160a01b031683526020938401939092019160010161298d565b634e487b7160e01b5f52603260045260245ffd5b634e487b7160e01b5f52601160045260245ffd5b80820180821115611693576116936129c8565b5f602082840312156129ff575f80fd5b8151801515811461109f575f80fd5b8082028115828204841417611693576116936129c8565b5f82612a3f57634e487b7160e01b5f52601260045260245ffd5b500490565b5f60018201612a5557612a556129c8565b5060010190565b634e487b7160e01b5f52604160045260245ffd5b5f7f80000000000000000000000000000000000000000000000000000000000000008203612aa057612aa06129c8565b505f0390565b81810381811115611693576116936129c8565b634e487b7160e01b5f52603160045260245ffdfea2646970667358221220f070665515c491ea2e9c83eb6309bb37918fe1205150ff2a25a70a93f501895e64736f6c634300081a0033","linkReferences":{}},"methodIdentifiers":{"LP_REWARD_PERCENTAGE()":"b26565c5","SAFETY_FUND_PERCENTAGE()":"91660a5a","TREASURY_PERCENTAGE()":"173b31d8","afterAddLiquidity(address,(address,address,uint24,int24,address),(int24,int24,int256,bytes32),int256,int256,bytes)":"9f063efc","afterDonate(address,(address,address,uint24,int24,address),uint256,uint256,bytes)":"e1b4af69","afterInitialize(address,(address,address,uint24,int24,address),uint160,int24)":"6fe7e6eb","afterRemoveLiquidity(address,(address,address,uint24,int24,address),(int24,int24,int256,bytes32),int256,int256,bytes)":"6c2bbe7e","afterSwap(address,(address,address,uint24,int24,address),(bool,int256,uint160),int256,bytes)":"b47b2fb1","beforeAddLiquidity(address,(address,address,uint24,int24,address),(int24,int24,int256,bytes32),bytes)":"259982e5","beforeDonate(address,(address,address,uint24,int24,address),uint256,uint256,bytes)":"b6a8b0fa","beforeInitialize(address,(address,address,uint24,int24,address),uint160)":"dc98354e","beforeRemoveLiquidity(address,(address,address,uint24,int24,address),(int24,int24,int256,bytes32),bytes)":"21d0ee70","beforeSwap(address,(address,address,uint24,int24,address),(bool,int256,uint160),bytes)":"575e24b4","checkExpiredLoans(uint256)":"357442c0","claimRewards()":"372500ab","collateralToken()":"b2016bd4","createLoan(uint256,uint256,uint256)":"904b513b","getAllLpProviders()":"efc140de","getClaimableRewards(address)":"308e401e","getCurrentBorrowRate(address)":"f1745d3d","getHookPermissions()":"c4e833ce","getLpProviderCount()":"78370d0a","getUserActiveLoans(address)":"b8e9c533","isLpProvider(address)":"74bb7862","kintoID()":"99a6cddd","liquidateLoan(uint256)":"ccdd9f5d","loanToken()":"06d37817","loans(uint256)":"e1ec3c68","lpPositions(address)":"54508972","lpProviders(uint256)":"de5c02c2","owner()":"8da5cb5b","poolManager()":"dc4c90d3","renounceOwnership()":"715018a6","repayLoan(uint256,uint256)":"8a700b53","rewardPoints(address)":"7bd95a85","safetyFundAddress()":"b180f09a","setKintoID(address)":"11a90dc3","setSafetyFundAddress(address)":"f844a1b4","setTreasuryAddress(address)":"6605bfda","totalLiquidity()":"15770f92","transferOwnership(address)":"f2fde38b","treasuryAddress()":"c5f956af","userCreditMetrics(address)":"ff51f542","userLoans(address,uint256)":"d8bad5bd"},"id":47}